{
  "_format": "hh-sol-artifact-1",
  "contractName": "TinyHubMarket",
  "sourceName": "contracts/TinyHubMarket.sol",
  "abi": [
    {
      "inputs": [],
      "name": "PLATFORM_FEE",
      "outputs": [
        {
          "internalType": "uint256",
          "name": "",
          "type": "uint256"
        }
      ],
      "stateMutability": "view",
      "type": "function"
    },
    {
      "inputs": [
        {
          "internalType": "string",
          "name": "_id",
          "type": "string"
        },
        {
          "internalType": "uint256",
          "name": "_amount",
          "type": "uint256"
        },
        {
          "internalType": "uint256",
          "name": "_price",
          "type": "uint256"
        },
        {
          "internalType": "enum TinyHubMarket.ResourceType",
          "name": "_type",
          "type": "uint8"
        }
      ],
      "name": "listResource",
      "outputs": [],
      "stateMutability": "nonpayable",
      "type": "function"
    },
    {
      "inputs": [
        {
          "internalType": "uint256",
          "name": "_tradeId",
          "type": "uint256"
        }
      ],
      "name": "purchaseResource",
      "outputs": [],
      "stateMutability": "payable",
      "type": "function"
    },
    {
      "inputs": [],
      "name": "tradeCount",
      "outputs": [
        {
          "internalType": "uint256",
          "name": "",
          "type": "uint256"
        }
      ],
      "stateMutability": "view",
      "type": "function"
    },
    {
      "inputs": [
        {
          "internalType": "uint256",
          "name": "",
          "type": "uint256"
        }
      ],
      "name": "trades",
      "outputs": [
        {
          "internalType": "string",
          "name": "stationId",
          "type": "string"
        },
        {
          "internalType": "address payable",
          "name": "seller",
          "type": "address"
        },
        {
          "internalType": "address",
          "name": "buyer",
          "type": "address"
        },
        {
          "internalType": "uint256",
          "name": "amount",
          "type": "uint256"
        },
        {
          "internalType": "uint256",
          "name": "pricePerUnit",
          "type": "uint256"
        },
        {
          "internalType": "enum TinyHubMarket.ResourceType",
          "name": "rType",
          "type": "uint8"
        },
        {
          "internalType": "bool",
          "name": "settled",
          "type": "bool"
        },
        {
          "internalType": "bool",
          "name": "exists",
          "type": "bool"
        }
      ],
      "stateMutability": "view",
      "type": "function"
    }
  ],
  "bytecode": "0x608060405234801561001057600080fd5b50610f84806100206000396000f3fe60806040526004361061004a5760003560e01c806304b5bda31461004f5780631e6c598e1461007857806334fbc9a1146100bc5780636ab23829146100e7578063bd55022a14610103575b600080fd5b34801561005b57600080fd5b50610076600480360381019061007191906107d9565b61012e565b005b34801561008457600080fd5b5061009f600480360381019061009a919061085c565b61030a565b6040516100b3989796959493929190610a0b565b60405180910390f35b3480156100c857600080fd5b506100d1610441565b6040516100de9190610a90565b60405180910390f35b61010160048036038101906100fc919061085c565b61044c565b005b34801561010f57600080fd5b5061011861061e565b6040516101259190610a90565b60405180910390f35b6001600081548092919061014190610ada565b91905055506040518061010001604052808581526020013373ffffffffffffffffffffffffffffffffffffffff168152602001600073ffffffffffffffffffffffffffffffffffffffff1681526020018481526020018381526020018260018111156101b0576101af610979565b5b815260200160001515815260200160011515815250600080600154815260200190815260200160002060008201518160000190816101ee9190610d2e565b5060208201518160010160006101000a81548173ffffffffffffffffffffffffffffffffffffffff021916908373ffffffffffffffffffffffffffffffffffffffff16021790555060408201518160020160006101000a81548173ffffffffffffffffffffffffffffffffffffffff021916908373ffffffffffffffffffffffffffffffffffffffff160217905550606082015181600301556080820151816004015560a08201518160050160006101000a81548160ff021916908360018111156102bc576102bb610979565b5b021790555060c08201518160050160016101000a81548160ff02191690831515021790555060e08201518160050160026101000a81548160ff02191690831515021790555090505050505050565b600060205280600052604060002060009150905080600001805461032d90610b51565b80601f016020809104026020016040519081016040528092919081815260200182805461035990610b51565b80156103a65780601f1061037b576101008083540402835291602001916103a6565b820191906000526020600020905b81548152906001019060200180831161038957829003601f168201915b5050505050908060010160009054906101000a900473ffffffffffffffffffffffffffffffffffffffff16908060020160009054906101000a900473ffffffffffffffffffffffffffffffffffffffff16908060030154908060040154908060050160009054906101000a900460ff16908060050160019054906101000a900460ff16908060050160029054906101000a900460ff16905088565b662386f26fc1000081565b600080600083815260200190815260200160002090506000662386f26fc10000826004015483600301546104809190610e00565b61048a9190610e42565b90508160050160029054906101000a900460ff1680156104b957508160050160019054906101000a900460ff16155b6104f8576040517f08c379a00000000000000000000000000000000000000000000000000000000081526004016104ef90610ec2565b60405180910390fd5b8034101561053b576040517f08c379a000000000000000000000000000000000000000000000000000000000815260040161053290610f2e565b60405180910390fd5b338260020160006101000a81548173ffffffffffffffffffffffffffffffffffffffff021916908373ffffffffffffffffffffffffffffffffffffffff16021790555060018260050160016101000a81548160ff0219169083151502179055508160010160009054906101000a900473ffffffffffffffffffffffffffffffffffffffff1673ffffffffffffffffffffffffffffffffffffffff166108fc836004015484600301546105ed9190610e00565b9081150290604051600060405180830381858888f19350505050158015610618573d6000803e3d6000fd5b50505050565b60015481565b6000604051905090565b600080fd5b600080fd5b600080fd5b600080fd5b6000601f19601f8301169050919050565b7f4e487b7100000000000000000000000000000000000000000000000000000000600052604160045260246000fd5b61068b82610642565b810181811067ffffffffffffffff821117156106aa576106a9610653565b5b80604052505050565b60006106bd610624565b90506106c98282610682565b919050565b600067ffffffffffffffff8211156106e9576106e8610653565b5b6106f282610642565b9050602081019050919050565b82818337600083830152505050565b600061072161071c846106ce565b6106b3565b90508281526020810184848401111561073d5761073c61063d565b5b6107488482856106ff565b509392505050565b600082601f83011261076557610764610638565b5b813561077584826020860161070e565b91505092915050565b6000819050919050565b6107918161077e565b811461079c57600080fd5b50565b6000813590506107ae81610788565b92915050565b600281106107c157600080fd5b50565b6000813590506107d3816107b4565b92915050565b600080600080608085870312156107f3576107f261062e565b5b600085013567ffffffffffffffff81111561081157610810610633565b5b61081d87828801610750565b945050602061082e8782880161079f565b935050604061083f8782880161079f565b9250506060610850878288016107c4565b91505092959194509250565b6000602082840312156108725761087161062e565b5b60006108808482850161079f565b91505092915050565b600081519050919050565b600082825260208201905092915050565b60005b838110156108c35780820151818401526020810190506108a8565b60008484015250505050565b60006108da82610889565b6108e48185610894565b93506108f48185602086016108a5565b6108fd81610642565b840191505092915050565b600073ffffffffffffffffffffffffffffffffffffffff82169050919050565b600061093382610908565b9050919050565b61094381610928565b82525050565b600061095482610908565b9050919050565b61096481610949565b82525050565b6109738161077e565b82525050565b7f4e487b7100000000000000000000000000000000000000000000000000000000600052602160045260246000fd5b600281106109b9576109b8610979565b5b50565b60008190506109ca826109a8565b919050565b60006109da826109bc565b9050919050565b6109ea816109cf565b82525050565b60008115159050919050565b610a05816109f0565b82525050565b6000610100820190508181036000830152610a26818b6108cf565b9050610a35602083018a61093a565b610a42604083018961095b565b610a4f606083018861096a565b610a5c608083018761096a565b610a6960a08301866109e1565b610a7660c08301856109fc565b610a8360e08301846109fc565b9998505050505050505050565b6000602082019050610aa5600083018461096a565b92915050565b7f4e487b7100000000000000000000000000000000000000000000000000000000600052601160045260246000fd5b6000610ae58261077e565b91507fffffffffffffffffffffffffffffffffffffffffffffffffffffffffffffffff8203610b1757610b16610aab565b5b600182019050919050565b7f4e487b7100000000000000000000000000000000000000000000000000000000600052602260045260246000fd5b60006002820490506001821680610b6957607f821691505b602082108103610b7c57610b7b610b22565b5b50919050565b60008190508160005260206000209050919050565b60006020601f8301049050919050565b600082821b905092915050565b600060088302610be47fffffffffffffffffffffffffffffffffffffffffffffffffffffffffffffffff82610ba7565b610bee8683610ba7565b95508019841693508086168417925050509392505050565b6000819050919050565b6000610c2b610c26610c218461077e565b610c06565b61077e565b9050919050565b6000819050919050565b610c4583610c10565b610c59610c5182610c32565b848454610bb4565b825550505050565b600090565b610c6e610c61565b610c79818484610c3c565b505050565b5b81811015610c9d57610c92600082610c66565b600181019050610c7f565b5050565b601f821115610ce257610cb381610b82565b610cbc84610b97565b81016020851015610ccb578190505b610cdf610cd785610b97565b830182610c7e565b50505b505050565b600082821c905092915050565b6000610d0560001984600802610ce7565b1980831691505092915050565b6000610d1e8383610cf4565b9150826002028217905092915050565b610d3782610889565b67ffffffffffffffff811115610d5057610d4f610653565b5b610d5a8254610b51565b610d65828285610ca1565b600060209050601f831160018114610d985760008415610d86578287015190505b610d908582610d12565b865550610df8565b601f198416610da686610b82565b60005b82811015610dce57848901518255600182019150602085019450602081019050610da9565b86831015610deb5784890151610de7601f891682610cf4565b8355505b6001600288020188555050505b505050505050565b6000610e0b8261077e565b9150610e168361077e565b9250828202610e248161077e565b91508282048414831517610e3b57610e3a610aab565b5b5092915050565b6000610e4d8261077e565b9150610e588361077e565b9250828201905080821115610e7057610e6f610aab565b5b92915050565b7f496e76616c696420747261646500000000000000000000000000000000000000600082015250565b6000610eac600d83610894565b9150610eb782610e76565b602082019050919050565b60006020820190508181036000830152610edb81610e9f565b9050919050565b7f496e73756666696369656e742066756e64730000000000000000000000000000600082015250565b6000610f18601283610894565b9150610f2382610ee2565b602082019050919050565b60006020820190508181036000830152610f4781610f0b565b905091905056fea2646970667358221220f7524b2d53e25028a839778f06ca2dddba6ac028f6562a20aa459ad79df50e9164736f6c63430008130033",
  "linkReferences": {},
  "deployedLinkReferences": {}
}